:070407000149000247003229
:10051400AF48AE4712055E1205B7AF48AE471201A9
:05052400AAE4F54922E4
:0305B40002051429
:100350001205A48F35E535B402028063E5491460C7
:100360001214603514603F24037054E53564017045
:0303700051804574
:100373001205AF8E368F371201AA1205BD500AE45B
:10038300FFFE1201AA75490322E53564017030129C
:0503930005B7754902E9
:10039800221205AF1201AAE535B4011E8012E4FF4E
:1003A800FE1201AAE535B40111AF48AE4712055E49
:0A03B80012053C75490122120514DC
:0103C2002218
:06040E00044300000000A1
:100529005389F0438901758CFC758A66D2A9D2AFCB
:03053900D28C223F
:0C056E00C2AFAF46AE45AD44AC43D2AFC7
:01057A00225E
:03000B0002048963
:10048900C0E0C0D075D000C004C005C006C0077563
:100499008CFC758A66AF46AE45AD44AC43EF24018A
:1004A900F546E43EF545E43DF544E43CF543D00723
:0B04B900D006D005D004D0D0D0E03237
:1004E100E4FEEFC39408500CA8077401088002C30E
:0904F10033D8FCFE6306FFAF06E0
:0104FA0022DF
:070003008F80D2A6C2A622E5
:070590008F80D2A7C2A72251
:0505AA007FFF02059037
:0C057B00C2A6C2A71205AAE4FF020003FA
:0204C400AC0783
:1004C6001205AAAF05120003BCFF047EFF8007AF2A
:0B04D600041204E1AE07AF060205901F
:10010800E4F524F523F522F521F528F527F526F55C
:1001180025F52CF52BF52AF529F530F52FF52EF5D3
:0D0128002D12052912058712054D1205B490
:1001350012056E8F348E338D328C317B007A0079C7
:1001450021753C00753D011203C350031204FBAF3A
:1001550034AE33AD32AC317B007A007929753C0081
:10016500753D0A1203C350031202D0AF34AE33AD4E
:1001750032AC317B007A007925753C00753D0A1259
:1001850003C3500312044AAF34AE33AD32AC317BF6
:10019500007A00792D753C00753D141203C350900B
:0301A500120350F2
:0201A800808B4A
:1003C3008F388E378D368C358B398A3A893B1200BC
:1003D3008EC3E5389BFBE5379AFAE53699F9E5359F
:1003E30098F8AE3CAF3DE4FCFDC31200634013AF8D
:1003F30038AE37AD36AC35AB39AA3AA93B120074E7
:04040300D322C3221B
:10041400021A000A021C000AC101C10002180000ED
:06059E0012055E0205B724
:10055E008E1A8F1B8E1C8F1DC200E4F518F5192202
:10053C00E51D451C7006851A1C851B1DD201C200C9
:01054C00228C
:0305B700C201225C
:0505AF00AE1CAF1D228F
:0305BA00A2012279
:0305BD00A2002277
:10044A0030013B200038740A2519F519E43518F5EE
:10045A0018C3E51994E8E51894034022E4F518F561
:10046A0019D3E51D9400E51C94004012E51D151DE5
:0F047A007002151CE51D451C7004D200C2012242
:100424000B0D3F065B4F666D7D077F6F0004080070
:06043400000000010C00B5
:0905870012057BE4FFFE0201AA4B
:0401AA00AB07AA06EF
:1001AE00D3EB940FEA942740047A277B0F7C037DD0
:1001BE00E8AF03AE0212000E8F387C007D64AF03F1
:1001CE00AE0212000E7C007D0A12000E8D397C00EC
:1001DE007D0AAF03AE0212000E7C007D0A12000EE5
:1001EE008D3AAE02AF037C007D0A12000EAF05E51C
:1001FE00387004AE178007740D2538F8E6FE8E08A9
:10020E00E5387008E5397004AE178007740D25398E
:10021E00F8E6FE8E09E538700CE5397008E53A709F
:10022E0004AE178007740D253AF8E6FE8E0A740D9B
:05023E002FF8E6F50BAE
:010243002298
:1004FB007408250CF8E6FDAF0C1204C4050CE50CD2
:09050B00C394044003E4F50C2242
:0305C000D2B02294
:0705970020B002D322C322B1
:0F043A00014100014000023E0000C102014200EA
:10054D001205C0E4F541F540F53EF53FC202F54216
:01055D00227B
:0505A400AF42E4F54246
:0105A900222F
:1002D0001205979203E541146012146026146054CD
:1002E00024037068300368754101804430035D0564
:1002F00040E540C394034057754102E4F53EF53FA5
:10030000C20222300327C3E53F94FFE53E94FF502D
:1003100008053FE53F7002053E200233C3E53F94E8
:1003200050E53E94004028D20275420222754103F6
:10033000E4F540222003110540E540C39403400F3B
:0F034000200203754201800475410222E4F54159
:01034F00228B
:03000000020244B5
:0C024400787FE4F6D8FD75814902028B3A
:10000E00BC000BBE0029EF8DF084FFADF022E4CCD6
:10001E00F875F008EF2FFFEE33FEEC33FCEE9DEC9F
:10002E00984005FCEE9DFE0FD5F0E9E4CEFD22EDE5
:10003E00F8F5F0EE8420D21CFEADF075F008EF2F2F
:10004E00FFED33FD4007985006D5F0F222C398FD20
:05005E000FD5F0EA22BD
:10006300EB9FF5F0EA9E42F0E99D42F0E89C45F0F3
:01007300226A
:10007400BB010789828A830200F05005E9F8020077
:0A008400E4BBFE05E9F80200FC22CF
:10008E00BB010789828A830200BB5005E9F8020092
:10009E00AEBBFE05E9F80200C789828A830200D44E
:10025000020108E493A3F8E493A34003F68001F2BB
:1002600008DFF48029E493A3F85407240CC8C333AF
:10027000C4540F4420C8834004F456800146F6DF7E
:10028000E4800B0102040810204080900407E47E03
:10029000019360BCA3FF543F30E509541FFEE49373
:1002A000A360010ECF54C025E060A840B8E493A33A
:1002B000FAE493A3F8E493A3C8C582C8CAC583CA65
:1002C000F0A3C8C582C8CAC583CADFE9DEE780BE1D
:0104490000B2
:0D00AE00E6FB08E6F908E6FA08E6CBF822C2
:0C00BB00E0F8A3E0F9A3E0FAA3E0FB22C8
:0D00C700E2FB08E2F908E2FA08E2CBF822B9
:1000D400E493F8740193F9740293FA740393FB2282
:0C00E400ECF608EDF608EEF608EFF62248
:0C00F000ECF0A3EDF0A3EEF0A3EFF02283
:0C00FC00ECF208EDF208EEF208EFF22240
:00000001FF
